:020000041000EA
:1000000000B5324B212058609868022188439860DF
:10001000D860186158612E4B002199600221596106
:100020000121F02299502B49196001219960352056
:1000300000F044F80222904214D00621196600F024
:1000400034F8196E01211966002018661A6600F04E
:100050002CF8196E196E196E052000F02FF8012189
:100060000842F9D1002199601B49196000215960AB
:100070001A491B48016001219960EB211966A021F2
:10008000196600F012F800219960164914480160C1
:100090000121996001BC002800D000471248134993
:1000A000086003C880F30888084703B5996A0420EC
:1000B0000142FBD001200142F8D103BD02B5186610
:1000C0001866FFF7F2FF186E186E02BD00000240BE
:1000D000000000180000070000035F00212200005C
:1000E000F4000018222000A00001001008ED00E03C
:1000F00000000000000000000000000074B24E7A12
:1001000000200420F7010010C3010010C5010010F9
:10011000C1010010C1010010C1010010C101001097
:10012000C1010010C1010010C1010010C701001081
:10013000C1010010C1010010C9010010CB01001065
:10014000CD010010CD010010CD010010CD01001037
:10015000CD010010CD010010CD010010CD01001027
:10016000CD010010CD010010CD010010CD01001017
:10017000CD010010CD010010CD010010CD01001007
:10018000CD010010CD010010CD010010CD010010F7
:10019000CD010010CD010010CD010010CD010010E7
:1001A000CD010010CD010010CD010010CD010010D7
:1001B000CD010010CD010010CD010010CD010010C7
:1001C00000BE00BE00BE00BE00BE00BEEFF3058054
:1001D000103800BEF2EB8871CC860010F486001057
:1001E0003402001090A31AE700201F49086006C8D7
:1001F00081F3088810471D48006800282FD10DA4FE
:100200000ECC002902D000F012F8F9E71849194A7B
:10021000002000E001C19142FCD1174988471749ED
:1002200088471749884700BEFDE701C901C29A42C5
:10023000FBD37047F4860010C00000207802002035
:10024000AC8800100000042000000420AC880010DE
:10025000001004200010042000000000704709482E
:1002600006F010F90047000008ED00E0000000D0A3
:1002700088020020900600203D4D0010050300106C
:10028000314E00105756000006005250ABB3605379
:100290000886001006005250861C030218860010C3
:1002A000060052505422A29D208600100500525094
:1002B000DE65F468AC880010F8B5C04610B5064C91
:1002C0002378002B07D1054B002B02D0044800E017
:1002D00000BF0123237010BD88050020000000002E
:1002E000887D0010044B10B5002B03D0034904484F
:1002F00000E000BF10BDC046000000008C050020DB
:10030000887D0010F0B5DE4657464E464546E0B5BE
:1003100085B007F063FA00F049FC734B002798465C
:1003200000234246137000F0EFF8002000F026FB97
:1003300002AB9D1D6D4B03AE99466D4B9B466D4BBD
:100340009A462900300037802F8000F0FBFB1024F4
:1003500000286CD12900300000F0F4FB00285AD1AD
:1003600043461B78042B0FD84A469B00D3582000E5
:100370009F4600F0DBFB002872D0200000F042FB1B
:100380005346186000F0FAFA322003F05FFED8E717
:1003900000F0CCFB002856D0200000F033FB534681
:1003A000186000F0EBFA032342461370ECE700F00C
:1003B000A9FB0028E8D0504B05221F6053461F6060
:1003C0005B461F604D4B1A7000F016FB00F09CF866
:1003D000002000F0D3FA43461F70D5E700F0A6FBDB
:1003E000002862D0200000F00DFB5B46186000F092
:1003F000C5FAC9E700F09AFB002866D000F0FCFAC5
:10040000200000F0FFFA5B46186000F0B7FA012305
:1004100042461370B8E72988308800F03DFA2A88F0
:10042000040003003188364807F0CCF998E72988A2
:10043000308800F031FA2A880400030031883148FE
:1004400007F0C0F986E7200000F05CFB00289BD095
:1004500000F0D2FA002000F091FA43461F7093E7B3
:10046000200000F055FB0028EDD0244B1A785346AD
:1004700019685B46186800F021FB1F4B18601F4B82
:100480001B78032B03D153461B68002B29D000F0A7
:100490002FFB002825D1184B1B681800019300F092
:1004A0006DFA0423424613706EE7200000F036FB1D
:1004B0000028C8D0200000F03FFB104B187000F05F
:1004C0009BFA0223424613705EE7200000F01AFBFD
:1004D000002800D158E700F08FFA002000F04EFA13
:1004E00052E700F06DFADCE78C060020C87D0010B2
:1004F0003C060020400600205806002098010020FD
:10050000A87D0010887D001070B51F2582B0D14CE9
:10051000002002F009FD022003F026F82823FA2229
:100520000A210A20009402F09BFC2823FA220A21C7
:100530000A20009502F0A0FD16210F2003F00AF812
:10054000002003F01BF8C44E300002F097FF242374
:1005500032223C210A20009502F082FC2423322220
:100560003C210A20009402F087FD48211D2002F062
:10057000F1FF200003F002F8B84802F07FFF2423C7
:1005800032223C214120009502F06AFC24233222D1
:100590003C214120009402F06FFD4821542002F0DC
:1005A000D9FF200002F0EAFFAD4802F067FF2423E4
:1005B00032223C217820009502F052FC2423322282
:1005C0003C217820009402F057FD48218B2002F056
:1005D000C1FF200002F0D2FFA24802F04FFF242307
:1005E00032223C21AF20009502F03AFC2423322233
:1005F0003C21AF20009402F03FFD4821C22002F0D0
:10060000A9FF200002F0BAFF974802F037FF242329
:10061000322265210A20009502F022FC2423322296
:1006200065210A20009402F027FD71211D2002F0AF
:1006300091FF200002F0A2FF8C4802F01FFF24234C
:10064000322265214120009502F00AFC2423322247
:1006500065214120009402F00FFD7121542002F029
:1006600079FF200002F08AFF814802F007FF24236F
:10067000322265217820009502F0F2FB24233222F9
:1006800065217820009402F0F7FC71218B2002F0A4
:1006900061FF200002F072FF764802F0EFFE242393
:1006A00032226521AF20009502F0DAFB24233222AA
:1006B0006521AF20009402F0DFFC7121C22002F01E
:1006C00049FF200002F05AFF6B4802F0D7FE2423B6
:1006D00032228E210A20009502F0C2FB242332220E
:1006E0008E210A20009402F0C7FC9A211D2002F0FE
:1006F00031FF200002F042FF604802F0BFFE2423D9
:1007000032228E214120009502F0AAFB24233222BE
:100710008E214120009402F0AFFC9A21542002F077
:1007200019FF200002F02AFF554802F0A7FE2423FB
:1007300032228E217820009502F092FB242332226F
:100740008E217820009402F097FC9A218B2002F0F1
:1007500001FF200002F012FF4A4802F08FFE24231E
:1007600032228E21AF20009502F07AFB2423322220
:100770008E21AF20009402F07FFC9A21C22002F06B
:10078000E9FE200002F0FAFE3F4802F077FE242343
:100790003222B7210A20009502F062FB2423322284
:1007A000B7210A20009402F067FCC3211D2002F04B
:1007B000D1FE200002F0E2FE344802F05FFE242366
:1007C0003222B7214120009502F04AFB2423322235
:1007D000B7214120009402F04FFCC321542002F0C5
:1007E000B9FE200002F0CAFE300002F047FE2423CA
:1007F0003222B7217820009502F032FB24233222E6
:10080000B7217820009402F037FCC3218B2002F03E
:10081000A1FE200002F0B2FE1D4802F02FFE2423AC
:100820003222B721AF20009502F01AFB2423322296
:10083000B721AF20009402F01FFCC321C22002F0B8
:1008400089FE200002F09AFE124802F017FE02B064
:1008500070BDC046FFFF000004860010DC7D001064
:10086000E07D0010E47D0010E87D0010EC7D0010BC
:10087000F07D0010F47D0010F87D00100C86001053
:10088000FC7D0010007E0010047E0010087E001029
:100890000C7E0010107E001002000A3A0300312A7C
:1008A00005D80B003C3B0720232B54D8704702008F
:1008B000413A312A16D80B003C3B0820232BF5D9AE
:1008C0000B00653B0520232BF0D90B008E3B02204B
:1008D000232BEBD92320B73989B28842804140428B
:1008E0000001E3E71A00783A312A17D80B003C3BA5
:1008F0000920232BDAD90B00653B0620232BD5D901
:100900000B008E3B0320232BD0D92320B73989B28B
:1009100088428041022318400E30C7E71020AE2BDA
:10092000C4D9E02BC2D80B003C3B0638232BBDD9E1
:100930000B00653B0B20232BB8D90B008E3B0C2002
:10094000232BB3D92320B73989B2884280410323AE
:1009500018400D30AAE70B00653B0420232BA5D9D6
:100960000B008E3B0120232BA0D92320B73989B25D
:100970008842804140420F3098E7C04610B50400DD
:100980000D4B88B0FA2200930A2128230A2002F096
:1009900067FA16210F2002F0DDFD002002F0EEFDC7
:1009A00023001421054A03A805F022FD03A802F044
:1009B00065FD08B010BDC046FFFF0000147E0010AA
:1009C00000B50B4B83B0FA2200930A2128230A209A
:1009D00002F046FA16210F2002F0BCFDF8200002BA
:1009E00002F0CCFD034802F049FD03B000BDC04653
:1009F000FFFF0000187E00100022014B1A607047B4
:100A0000EC050020092852D82A4B80001B589F462D
:100A1000294B1A6890008018400008301860704711
:100A2000254B1A6890008018400009301860F6E7DE
:100A3000214B1A689000801840001860EFE71E4BA9
:100A40001A6890008018400001301860E7E71A4BE0
:100A50001A6890008018400002301860DFE7164BDB
:100A60001A6890008018400003301860D7E7124BD6
:100A70001A6890008018400004301860CFE70E4BD1
:100A80001A6890008018400005301860C7E70A4BCC
:100A90001A6890008018400006301860BFE7064BC7
:100AA0001A6890008018400007301860B7E7024BC2
:100AB0001868B4E7207E0010EC050020030010B594
:100AC000022A0ED004D80818002A00D0581A10BDE7
:100AD0000020032AFBD1002906D0180005F004FDF0
:100AE000F5E74B431800F2E70048F0E7FFFFFF7F10
:100AF000034B9C46604443425841C0B27047C046D5
:100B0000010000800F3843425841C0B27047C046D0
:100B10000E3843425841C0B27047C0460A38C3B28B
:100B2000032200209A424041C0B2704709220023AC
:100B300082425B41D8B270470A38C0B2032800D95C
:100B40000520704770B582B000236A4605006846EC
:100B50000C009380009300F037F86B465A883C21D4
:100B6000900080188001801A05F0BEFC6B4686B2AA
:100B700018880C4B0C499C46604403011B1A1B014E
:100B8000181A05F0B1FC6A46C82328802680042183
:100B9000525E01209B009A4200DB0020C0B202B0EE
:100BA00070BDC04612FDFFFFF609000010B506F04B
:100BB00001FF00F075F900F011FF002002F0C8F904
:100BC000002002F0B1F910BDF0B5D6464F464646BA
:100BD000C0B5814684B0152002F030FDD0248023BA
:100BE00024069B03A3621F211B2002F0D1FC0022DC
:100BF00000211B2002F0E4FC00211B2002F00AFD72
:100C00008023984D5B012A6816205340E022D201D0
:100C10001340954A04AF136002F010FD8023DB03FC
:100C200063621A20636102F009FD8023DB046362C2
:100C3000A3618E4B01AC8022260021009C4604203B
:100C40005200634618602B681342FCD06B681B048B
:100C50001B0C08C1B942F4D1029A019B934200DCFB
:100C6000FBE0029323001A60039D022202A900E028
:100C700001227F4BD3189B00E058854200DBE6E061
:100C8000C850012AF4D1220015606268794B162001
:100C90009B1A984602F0D2FCD0231B069A4680236A
:100CA0005246DB0393621F211A2002F071FC0022DE
:100CB00000211A2002F084FC00211A2002F0AAFC74
:100CC000E022684DD2012B681B201340664A136056
:100CD00002F0B4FC802352461B0553621520536179
:100CE00002F0ACFC802352469B0353629361802246
:100CF00004215E48520001602B681342FCD06B68EF
:100D00001B041B0C08C6BE42F5D1029A019B9342FC
:100D100000DCA4E0029323001A60039E022202A8D2
:100D200000E00122524BD3189B00E1588E4200DBB9
:100D300090E0C150012AF4D12200166063684D4C46
:100D40001620E41AD02602F079FC80233606DB0355
:100D500073621520B36102F071FC80239B03736200
:100D60001F2173611A2002F013FC002200211A20B7
:100D700002F026FC00211A2002F04CFC1F211B204F
:100D800002F006FC002200211B2002F019FC0021C9
:100D90001B2002F03FFCE021324AC90113680B40DE
:100DA00031490B600421314B1960FC3113680B424F
:100DB000FCD08023566812685B015340E022D201C8
:100DC0001340294A802113600422284B36041A60FC
:100DD000244A360C490013680B42FCD050680004CA
:100DE000000C06F033FA071C300006F02FFA011C45
:100DF000381C06F0E2F9FE21890506F0D8F9061C38
:100E0000404606F023FA311C06F0EBF91A4906F0C9
:100E1000E8F9E621890506F0E4F91849061C06F010
:100E20000FFA002811D1301C06F032FA06B214482D
:100E300006F026FC4B4642465C801A809E8004B039
:100E4000E0BCBA46B146A846F0BD0E4EEFE79200B0
:100E5000A21819E79200A2186FE702AB03E702ABF2
:100E60005AE7C04600C0044000D0044000E00440FF
:100E7000FFFFFF3FFF0F00000080894300FEFF4699
:100E8000487E0010FF7F00000122034B1A630022FE
:100E9000024B1A707047C046000020509901002094
:100EA000F0B5C646F02200B5404B84B01A80404BE6
:100EB000503212201A80D02402F0C0FB8023240676
:100EC000DB0263621420636102F0B8FB80235B03E2
:100ED0006362102002F0B2FB8023364E5B02636235
:100EE00035493068984606F081FD344BC2011860E0
:100EF000431D1B031343324A346813400193314BA3
:100F000075680393304B0700029343460093A02378
:100F10002900200000221B0306F0CCFDA0231B03A8
:100F20001A002900200006F017FE284B1320E318B2
:100F30005A1E934106339846190002F029FB414698
:100F4000112002F025FB0021112002F051FB6B461D
:100F50003A002900200006F051FE6B005B19DB000F
:100F60001B4AE318D8331A601A4A07201A60012274
:100F70001300AB4021680B432360336816491A63A2
:100F800080222D339201FF331343802252001A60D6
:100F900002F0E6FB0121072002F0C8FBFA20400026
:100FA00003F054F804B080BCB846F0BD7E060020C3
:100FB0007C0600209C0100204C8300104406002089
:100FC000FFFFFF9F13441020000006100000E0AF59
:100FD00026E0000046E00000890E0010012270B5F6
:100FE000104D060A6B6829681C1D10339A40A40036
:100FF0000C194B681A42FCD1267012CD2300012235
:1010000010339A40084D2B78002BFCD10434013367
:10101000A4002B70C0B20C194B681342FCD1207095
:1010200070BDC0469C01002099010020F0B5D0237E
:1010300015008022C6461B06520200B59A61802226
:10104000D2029A610122814E0F00736831681C1D23
:1010500010339A40A4000C194B681A42FCD12A2381
:101060002370C046C046C046C046C046C046C046C3
:10107000C046C046C046C046C046C046C046C04640
:10108000C046C046C046C046C046C046C046C04630
:10109000C046C046C046C046C046C046C046C04620
:1010A000C046C046C046C046C046C046C046C04610
:1010B000C046C046C046C046C046C046C046C04600
:1010C000C046C046C046C046C046C046C046C046F0
:1010D000C046C046C046C046C046C046C046C046E0
:1010E000C0465B4C2378002BFCD101332370802257
:1010F000D02380211B06D20249025A6159619A61AC
:1011000083B218009846FFF769FFC046C046C04644
:10111000C046C046C046C046C046C046C046C0469F
:10112000C046C046C046C046C046C046C046C0468F
:10113000C046C046C046C046C046C046C046C0467F
:10114000C046C046C046C046C046C046C046C0466F
:10115000C046C046C046C046C046C046C046C0465F
:10116000C046C046C046C046C046C046C046C0464F
:10117000C046C046C046C046C046C046C046C0463F
:10118000C046C046C046C046C046C046C046C0462F
:10119000C046C046C046C046C046C046C046C0461F
:1011A000C046C046C046C046C046C046C046C0460F
:1011B000C046C046C046C046C046C046C046C046FF
:1011C000C046C046C046C046C046C046C046C046EF
:1011D000C046C046C046C046C046C046C046C046DF
:1011E000C046C046C046C046C046C046C046C046CF
:1011F000C046C046C046C046C046C046C046C046BF
:10120000C046C046C046C046C046C046C046C046AE
:10121000C046C046C046C046C046C046C046C0469E
:10122000C046C046C046C046C046C046C046C0468E
:10123000C046C046C046C046C046C046C046C0467E
:10124000C046C046C046C046C04603E09C010020E0
:10125000990100202378002BFCD1013323704046F4
:10126000D02380221B06D20201305A6180B29A61DB
:10127000FFF7B4FEC046C046C046C046C046C046A2
:10128000C046C046C046C046C046C046C046C0462E
:10129000C046C046C046C046C046C046C046C0461E
:1012A000C046C046C046C046C046C046C046C0460E
:1012B000C046C046C046C046C046C046C046C046FE
:1012C000C046C046C046C046C046C046C046C046EE
:1012D000C046C046C046C046C046C046C046C046DE
:1012E000C046C046C046C046C046C046C046C046CE
:1012F000C046C046C046C046C046C046C046C046BE
:10130000C046C046C046C046C046C046C046C046AD
:10131000C046C046C046C046C046C046C046C0469D
:10132000C046C046C046C046C046C046C046C0468D
:10133000C046C046C046C046C046C046C046C0467D
:10134000C046C046C046C046C046C046C046C0466D
:10135000C046C046C046C046C046C046C046C0465D
:10136000C046C046C046C046C046C046C046C0464D
:10137000C046C046C046C046C046C046C046C0463D
:10138000C046C046C046C046C046C046C046C0462D
:10139000C046C046C046C046C046C046C046C0461D
:1013A000C046C046C046C046C046C046C046C0460D
:1013B000C046C0462378002BFCD1D0238022802158
:1013C00001201B06D202490220705A61996171689E
:1013D0009A610B1D9B009C461031884032689444F2
:1013E00053681842FCD12B2362461370C046C04696
:1013F000C046C046C046C046C046C046C046C046BD
:10140000C046C046C046C046C046C046C046C046AC
:10141000C046C046C046C046C046C046C046C0469C
:10142000C046C046C046C046C046C046C046C0468C
:10143000C046C046C046C046C046C046C046C0467C
:10144000C046C046C046C046C046C046C046C0466C
:10145000C046C046C046C046C046C046C046C0465C
:10146000C046C046C046C046C046C046C046C0464C
:10147000C046C046C046C046C046C046C046C0463C
:10148000C046C046C046C046C046C046C046C0462C
:10149000C046C046C046C046C046C046C046C0461C
:1014A000C046C046C046C046C046C0462378002B52
:1014B000FCD1013323708022D02380211B06D2026D
:1014C0004902BFB25A61380059619A61FFF786FD3F
:1014D000C046C046C046C046C046C046C046C046DC
:1014E000C046C046C046C046C046C046C046C046CC
:1014F000C046C046C046C046C046C046C046C046BC
:10150000C046C046C046C046C046C046C046C046AB
:10151000C046C046C046C046C046C046C046C0469B
:10152000C046C046C046C046C046C046C046C0468B
:10153000C046C046C046C046C046C046C046C0467B
:10154000C046C046C046C046C046C046C046C0466B
:10155000C046C046C046C046C046C046C046C0465B
:10156000C046C046C046C046C046C046C046C0464B
:10157000C046C046C046C046C046C046C046C0463B
:10158000C046C046C046C046C046C046C046C0462B
:10159000C046C046C046C046C046C046C046C0461B
:1015A000C046C046C046C046C046C046C046C0460B
:1015B000C046C046C046C046C046C046C046C046FB
:1015C000C046C046C046C046C046C046C046C046EB
:1015D000C046C046C046C046C046C046C046C046DB
:1015E000C046C046C046C046C046C046C046C046CB
:1015F000C046C046C046C046C046C046C046C046BB
:10160000C046C046C046C046C046C046C046C046AA
:101610002378002BFCD1013323708022D023D20207
:101620001B0601375A61B8B29A61FFF7D7FCC04672
:10163000C046C046C046C046C046C046C046C0467A
:10164000C046C046C046C046C046C046C046C0466A
:10165000C046C046C046C046C046C046C046C0465A
:10166000C046C046C046C046C046C046C046C0464A
:10167000C046C046C046C046C046C046C046C0463A
:10168000C046C046C046C046C046C046C046C0462A
:10169000C046C046C046C046C046C046C046C0461A
:1016A000C046C046C046C046C046C046C046C0460A
:1016B000C046C046C046C046C046C046C046C046FA
:1016C000C046C046C046C046C046C046C046C046EA
:1016D000C046C046C046C046C046C046C046C046DA
:1016E000C046C046C046C046C046C046C046C046CA
:1016F000C046C046C046C046C046C046C046C046BA
:10170000C046C046C046C046C046C046C046C046A9
:10171000C046C046C046C046C046C046C046C04699
:10172000C046C046C046C046C046C046C046C04689
:10173000C046C046C046C046C046C046C046C04679
:10174000C046C046C046C046C046C046C046C04669
:10175000C046C046C046C046C046C046C046C04659
:10176000C046C046C046C046C046C046C0462378B4
:10177000002BFCD1D0238022802001211B06D20225
:10178000400221705A6198619A6144CE301D103632
:10179000B1408000101853680B42FCD12C23037019
:1017A000C046C046C046C046C046C046C046C04609
:1017B000C046C046C046C046C046C046C046C046F9
:1017C000C046C046C046C046C046C046C046C046E9
:1017D000C046C046C046C046C046C046C046C046D9
:1017E000C046C046C046C046C046C046C046C046C9
:1017F000C046C046C046C046C046C046C046C046B9
:10180000C046C046C046C046C046C046C046C046A8
:10181000C046C046C046C046C046C046C046C04698
:10182000C046C046C046C046C046C046C046C04688
:10183000C046C046C046C046C046C046C046C04678
:10184000C046C046C046C046C046C046C046C04668
:10185000C046C046C046C046C046C046C046C04658
:101860002378002BFCD1013323708022D0238021E8
:101870001B06D20249025A61280059619A61FFF79A
:10188000ADFBC046C046C046C046C046C046C04686
:10189000C046C046C046C046C046C046C046C04618
:1018A000C046C046C046C046C046C046C046C04608
:1018B000C046C046C046C046C046C046C046C046F8
:1018C000C046C046C046C046C046C046C046C046E8
:1018D000C046C046C046C046C046C046C046C046D8
:1018E000C046C046C046C046C046C046C046C046C8
:1018F000C046C046C046C046C046C046C046C046B8
:10190000C046C046C046C046C046C046C046C046A7
:10191000C046C046C046C046C046C046C046C04697
:10192000C046C046C046C046C046C046C046C04687
:10193000C046C046C046C046C046C046C046C04677
:10194000C046C046C046C046C046C046C046C04667
:10195000C046C046C046C046C046C046C046C04657
:10196000C046C046C046C046C046C046C046C04647
:10197000C046C046C046C046C046C046C046C04637
:10198000C046C046C046C046C046C046C046C04627
:10199000C046C046C046C046C046C046C046C04617
:1019A000C046C046C046C046C046C046C046C04607
:1019B000C046C046C046C046C046C046C046C046F7
:1019C000C0462378002BFCD1013323708022D02322
:1019D000D2021B065A6180BCB846F0BDF0B5FA20B1
:1019E000C646D02480258027802624066D0300B5B6
:1019F00040007F02F60202F029FBA5610520A761E5
:101A00006661656102F022FB1420A56102F01EFBF5
:101A10009620656102F01AFB0122DE4DA7616B681A
:101A20002968181D10339A408000A66108184B6879
:101A30001A42FCD1EF2303706868012203001033BF
:101A40009A402968D44C2378002BFCD101332370B1
:101A50008026D023802704301B06F6027F028000F8
:101A60005E6108185F619E614B681A42FCD10323D6
:101A7000037068680122030010339A4029682378B4
:101A8000002BFCD1013323708026D0238027043023
:101A90001B06F6027F0280005E6108185F619E618E
:101AA0004B681A42FCD1802303706868012203004E
:101AB00010339A4029682378002BFCD1013323701E
:101AC0008026D023802704301B06F6027F02800088
:101AD0005E6108185F619E614B681A42FCD1022367
:101AE000037068680122030010339A402968237844
:101AF000002BFCD1013323708026D02380270430B3
:101B00001B06F6027F0280005E6108189F619E61DD
:101B10004B681A42FCD1CF2303706868012203008E
:101B200010339A4029682378002BFCD101332370AD
:101B30008026D02380271B06F6027F0204305E61D8
:101B40005F619E6186008E1910004B6818401A4232
:101B5000FAD1307068680122030010339A40296876
:101B60002378002BFCD1013323708026D0238027DB
:101B700004301B06F6027F0280005E6108185F6178
:101B80009E614B681A42FCD1C12303706868012230
:101B9000030010339A4029682378002BFCD10133CD
:101BA00023708026D023802704301B06F6027F0294
:101BB00080005E6108185F619E614B681A42FCD12B
:101BC0003023037068680122030010339A402968AB
:101BD0002378002BFCD1013323708026D02380276B
:101BE00004301B06F6027F0280005E6108189F61C8
:101BF0009E614B681A42FCD1ED2303706868012294
:101C0000030010339A4029682378002BFCD101335C
:101C100023708026D023802704301B06F6027F0223
:101C200080005E6108185F619E614B681A42FCD1BA
:101C30006423037068680122030010339A40296806
:101C40002378002BFCD1013323708026D0238027FA
:101C500004301B06F6027F0280005E6108185F6197
:101C60009E614B681A42FCD103230370686801220D
:101C7000030010339A4029682378002BFCD10133EC
:101C800023708026D023802704301B06F6027F02B3
:101C900080005E6108185F619E614B681A42FCD14A
:101CA0001223037068680122030010339A402968E8
:101CB0002378002BFCD1013323708026D02380278A
:101CC00004301B06F6027F0280005E6108185F6127
:101CD0009E614B681A42FCD181230370686801221F
:101CE000030010339A4029682378002BFCD101337C
:101CF00023708026D023802704301B06F6027F0243
:101D000080005E6108189F619E614B681A42FCD199
:101D1000E823037068680122030010339A402968A1
:101D20002378002BFCD1013323708026D023802719
:101D300004301B06F6027F0280005E6108185F61B6
:101D40009E614B681A42FCD18523037068680122AA
:101D5000030010339A4029682378002BFCD101330B
:101D600023708026D02380271B06F6027F020430D2
:101D70005E615F619E6186008E1910004B6818409D
:101D80001A42FAD1307068680122030010339A4079
:101D9000296803E09C010020990100202378002B92
:101DA000FCD1013323708026D023802704301B060A
:101DB000F6027F0280005E6108185F619E614B68D9
:101DC0001A42FCD1782303706868012203001033A3
:101DD0009A4029682378002BFCD101332370802698
:101DE000D023802704301B06F6027F0280005E614C
:101DF00008189F619E614B681A42FCD1CB23037087
:101E000068680122030010339A4029682378002B68
:101E1000FCD1013323708026D023802704301B0699
:101E2000F6027F0280005E6108185F619E614B6868
:101E30001A42FCD139230370686801220300103371
:101E40009A4029682378002BFCD101332370802627
:101E5000D023802704301B06F6027F0280005E61DB
:101E600008185F619E614B681A42FCD12C230370F5
:101E700068680122030010339A4029682378002BF8
:101E8000FCD1013323708026D02380271B06F60265
:101E90007F0204305E615F619E6186008E191000D2
:101EA0004B6818401A42FAD130706868012203006A
:101EB00010339A4029682378002BFCD1013323701A
:101EC0008026D023802704301B06F6027F02800084
:101ED0005E6108185F619E614B681A42FCD1342331
:101EE000037068680122030010339A402968237840
:101EF000002BFCD1013323708026D02380270430AF
:101F00001B06F6027F0280005E6108185F619E6119
:101F10004B681A42FCD10223037068680122030057
:101F200010339A4029682378002BFCD101332370A9
:101F30008026D023802704301B06F6027F02800013
:101F40005E6108189F619E614B681A42FCD1F723BD
:101F5000037068680122030010339A4029682378CF
:101F6000002BFCD1013323708026D023802704303E
:101F70001B06F6027F0280005E6108185F619E61A9
:101F80004B681A42FCD120230370686801220300C9
:101F900010339A4029682378002BFCD10133237039
:101FA0008026D023802704301B06F6027F028000A3
:101FB0005E6108189F619E614B681A42FCD1EA235A
:101FC000037068680122030010339A40296823785F
:101FD000002BFCD1013323708026D02380271B06E1
:101FE000F6027F0204305E615F619E6186008E1999
:101FF00010004B6818401A42FAD13070686801220C
:10200000030010339A4029682378002BFCD1013358
:1020100023708026D02380271B06F6027F0204301F
:102020005E615F619E6186008E1910004B681840EA
:102030001A42FAD1307068680122030010339A40C6
:1020400029682378002BFCD1013323708026D0230C
:10205000802704301B06F6027F0280005E610818AC
:102060009F619E614B681A42FCD1C023037068686F
:102070000122030010339A4029682378002BFCD1F9
:10208000013323708026D023802704301B06F602FC
:102090007F0280005E6108185F619E614B681A4292
:1020A000FCD12323037068680122030010339A4097
:1020B00029682378002BFCD1013323708026D0239C
:1020C000802704301B06F6027F0280005E6108183C
:1020D0009F619E614B681A42FCD1C12303706868FE
:1020E0000122030010339A4029682378002BFCD189
:1020F000013323708026D023802704301B06F6028C
:102100007F0280005E6108185F619E614B681A4221
:10211000FCD11023037068680122030010339A4039
:1021200029682378002BFCD1013323708026D0232B
:10213000802704301B06F6027F0280005E610818CB
:102140009F619E614B681A42FCD1C5230370686889
:102150000122030010339A4029682378002BFCD118
:10216000013323708026D023802704301B06F6021B
:102170007F0280005E6108185F619E614B681A42B1
:10218000FCD13E23037068680122030010339A409B
:1021900029682378002BFCD1013323708026D023BB
:1021A000802704301B06F6027F0280005E6108185B
:1021B0005F619E614B681A42FCD1282303706868F6
:1021C0000122030010339A4029682378002BFCD1A8
:1021D000013323708026D023802704301B06F602AB
:1021E0007F0280005E6108189F619E614B681A4201
:1021F000FCD1C723037068680122030010339A40A2
:1022000029682378002BFCD1013323708026D0234A
:10221000802704301B06F6027F0280005E610818EA
:102220005F619E614B681A42FCD186230370686827
:102230000122030010339A4029682378002BFCD137
:10224000013323708026D023802704301B06F6023A
:102250007F0280005E6108189F619E614B681A4290
:10226000FCD13623037068680122030010339A40C2
:1022700029682378002BFCD1013323708026D023DA
:10228000802704301B06F6027F0280005E6108187A
:102290005F619E614B681A42FCD1482303706868F5
:1022A0000122030010339A4029682378002BFCD1C7
:1022B000013323708026D023802704301B06F602CA
:1022C0007F0280005E6108189F619E614B681A4220
:1022D000FCD13A23037068680122030010339A404E
:1022E00029682378002BFCD1013323708026D0236A
:1022F000802704301B06F6027F0280005E6108180A
:102300005F619E614B681A42FCD155230370686877
:102310000122030010339A4029682378002BFCD156
:10232000013323708026D023802704301B06F60259
:102330007F0280005E6108189F619E614B681A42AF
:10234000FCD1B123037068680122030010339A4066
:1023500029682378002BFCD1013323708026D023F9
:1023600080271B06F6027F0204305E615F619E617A
:1023700086008E1910004B6818401A42FAD130704E
:1023800068680122030010339A4029682378002BE3
:10239000FCD1013323708026D023802704301B0614
:1023A000F6027F0280005E6108185F619E614B68E3
:1023B0001A42FCD11823037068680122030010330D
:1023C0009A4029682378002BFCD1013323708026A2
:1023D000D023802704301B06F6027F0280005E6156
:1023E00008189F619E614B681A42FCD1B6230370A6
:1023F00068680122030010339A4029682378002B73
:10240000FCD1013323708026D023802704301B06A3
:10241000F6027F0280005E6108185F619E614B6872
:102420001A42FCD1082303706868012203001033AC
:102430009A4029682378002BFCD101332370802631
:10244000D023802704301B06F6027F0280005E61E5
:1024500008185F619E614B681A42FCD182230370A9
:1024600068680122030010339A4029682378002B02
:10247000FCD1013323708026D023802704301B0633
:10248000F6027F0280005E6108185F619E614B6802
:102490001A42FCD12723037068680122030010331D
:1024A0009A4029682378002BFCD1013323708026C1
:1024B000D023802704301B06F6027F0280005E6175
:1024C00008189F619E614B681A42FCD1F223037089
:1024D00068680122030010339A4029682378002B92
:1024E000FCD1013323708026D02380271B06F602FF
:1024F0007F0204305E615F619E6186008E1910006C
:102500004B6818401A42FAD1307068680122030003
:1025100010339A4029682378002BFCD101332370B3
:102520008026D023802704301B06F6027F0280001D
:102530005E6108189F619E614B681A42FCD1262398
:10254000037068680122030010339A4029682378D9
:10255000002BFCD1013323708026D0238027043048
:102560001B06F6027F0280005E6108185F619E61B3
:102570004B681A42FCD10122027068682968030086
:1025800010339A402378002BFCD10133237080262E
:10259000D023802704301B06F6027F0280005E6194
:1025A00008189F619E614B681A42FCD1E0230370BA
:1025B00068680122030010339A4029682378002BB1
:1025C000FCD1013323708026D023802704301B06E2
:1025D000F6027F0280005E6108185F619E614B68B1
:1025E0001A42FCD10F2303706868012203001033E4
:1025F0009A4029682378002BFCD101332370802670
:10260000D023802704301B06F6027F0280005E6123
:1026100008185F619E614B681A42FCD13123037038
:1026200068680122030010339A4029682378002B40
:10263000FCD1013323708026D023802704301B0671
:10264000F6027F0280005E6108185F619E614B6840
:102650001A42FCD12B230370686801220300103357
:102660009A4029682378002BFCD1013323708026FF
:10267000D023802704301B06F6027F0280005E61B3
:1026800008185F619E614B681A42FCD10C230370ED
:1026900068680122030010339A4029682378002BD0
:1026A000FCD1013323708026D023802704301B0601
:1026B000F6027F0280005E6108185F619E614B68D0
:1026C0001A42FCD10E230370686801220300103304
:1026D0009A4029682378002BFCD10133237080268F
:1026E000D023802704301B06F6027F0280005E6143
:1026F00008185F619E614B681A42FCD10823037081
:1027000068680122030010339A4029682378002B5F
:10271000FCD1013323708026D023802704301B0690
:10272000F6027F0280005E6108185F619E614B685F
:102730001A42FCD14E230370686801220300103353
:102740009A4029682378002BFCD10133237080261E
:10275000D023802704301B06F6027F0280005E61D2
:1027600008185F619E614B681A42FCD1F123037027
:1027700068680122030010339A4029682378002BEF
:10278000FCD1013323708026D023802704301B0620
:10279000F6027F0280005E6108185F619E614B68EF
:1027A0001A42FCD1372303706868012203001033FA
:1027B0009A4029682378002BFCD1013323708026AE
:1027C000D023802704301B06F6027F0280005E6162
:1027D00008185F619E614B681A42FCD107230370A1
:1027E00068680122030010339A4029682378002B7F
:1027F000FCD1013323708026D023802704301B06B0
:10280000F6027F0280005E6108185F619E614B687E
:102810001A42FCD1102303706868012203001033B0
:102820009A4029682378002BFCD10133237080263D
:10283000D023802704301B06F6027F0280005E61F1
:1028400008185F619E614B681A42FCD10323037034
:1028500068680122030010339A4029682378002B0E
:10286000FCD1013323708026D023802704301B063F
:10287000F6027F0280005E6108185F619E614B680E
:102880001A42FCD10E230370686801220300103342
:102890009A4029682378002BFCD1013323708026CD
:1028A000D023802704301B06F6027F0280005E6181
:1028B00008185F619E614B681A42FCD109230370BE
:1028C00068680122030010339A4029682378002B9E
:1028D000FCD1013323708026D02380271B06F6020B
:1028E0007F0204305E615F619E6186008E19100078
:1028F0004B6818401A42FAD1307068680122030010
:1029000010339A4029682378002BFCD101332370BF
:102910008026D023802704301B06F6027F02800029
:102920005E6108189F619E614B681A42FCD1E123E9
:10293000037068680122030010339A4029682378E5
:10294000002BFCD1013323708026D02380271B0667
:10295000F6027F0204305E615F619E6186008E191F
:1029600010004B6818401A42FAD130706868012292
:10297000030010339A4029682378002BFCD10133DF
:1029800023708026D023802704301B06F6027F02A6
:1029900080005E6108185F619E614B681A42FCD13D
:1029A0000E23037068680122030010339A402968DF
:1029B0002378002BFCD1013323708026D02380277D
:1029C00004301B06F6027F0280005E6108185F611A
:1029D0009E614B681A42FCD114230370686801227F
:1029E000030010339A4029682378002BFCD101336F
:1029F00023708026D023802704301B06F6027F0236
:102A000080005E6108185F619E614B681A42FCD1CC
:102A10000323037068680122030010339A40296879
:102A20002378002BFCD1013323708026D02380270C
:102A300004301B06F6027F0280005E6108185F61A9
:102A40009E614B681A42FCD1112303706868012211
:102A5000030010339A4029682378002BFCD10133FE
:102A600023708026D023802704301B06F6027F02C5
:102A700080005E6108185F619E614B681A42FCD15C
:102A80000723037068680122030010339A40296805
:102A90002378002BFCD1013323708026D02380279C
:102AA00004301B06F6027F0280005E6108185F6139
:102AB0009E614B681A42FCD1312303706868012281
:102AC000030010339A4029682378002BFCD101338E
:102AD00023708026D023802704301B06F6027F0255
:102AE00080005E6108185F619E614B681A42FCD1EC
:102AF000C123037068680122030010339A402968DB
:102B00002378002BFCD1013323708026D02380272B
:102B100004301B06F6027F0280005E6108185F61C8
:102B20009E614B681A42FCD14823037068680122F9
:102B3000030010339A4029682378002BFCD101331D
:102B400023708026D023802704301B06F6027F02E4
:102B500080005E6108185F619E614B681A42FCD17B
:102B60000823037068680122030010339A40296823
:102B70002378002BFCD1013323708026D0238027BB
:102B800004301B06F6027F0280005E6108185F6158
:102B90009E614B681A42FCD10F23037068680122C2
:102BA000030010339A4029682378002BFCD10133AD
:102BB00023708026D023802704301B06F6027F0274
:102BC00080005E6108185F619E614B681A42FCD10B
:102BD0000C23037068680122030010339A402968AF
:102BE0002378002BFCD1013323708026D02380274B
:102BF00004301B06F6027F0280005E6108185F61E8
:102C00009E614B681A42FCD131230370686801222F
:102C1000030010339A4029682378002BFCD101333C
:102C200023708026D023802704301B06F6027F0203
:102C300080005E6108185F619E614B681A42FCD19A
:102C40003623037068680122030010339A40296814
:102C50002378002BFCD1013323708026D0238027DA
:102C600004301B06F6027F0280005E6108185F6177
:102C70009E614B681A42FCD10F23037068680122E1
:102C8000030010339A4029682378002BFCD10133CC
:102C900023708026D023802704301B06F6027F0293
:102CA00080005E6108189F619E614B681A42FCD1EA
:102CB000112303702378002BFCD1D0278023012619
:102CC000DB023F06267078207B61984601F0BEF952
:102CD00006CD80235B02BB61101D43461032964037
:102CE0008000BB6108184B681E42FCD12923037089
:102CF0002378002BFCD1013323708022D023FA20CB
:102D00001B06D2025A61400001F0A0F980BCB8460F
:102D1000F0BDC046F0B515001F008022D023C64686
:102D20001B06520200B59A6180224B4ED2029A6174
:102D300073688846191D10331C000123A3403268B4
:102D40008900511854682342FCD12A23434C0B704C
:102D50002378002BFCD1013323708022D0238021E3
:102D60001B06D20249025A6159619A61FEF736F98F
:102D70002378002BFCD1013323708022D0238021C3
:102D80001B06D20249025A61280059619A61FEF776
:102D900025F92378002BFCD1D02380228021012526
:102DA0001B06D202490225705A61996171689A61C5
:102DB000081D10318D403368800018185A6815427C
:102DC000FCD12B2303702378002BFCD1013323701B
:102DD0008022D02380211B06D20249025A6140463C
:102DE00059619A61FEF7FAF82378002BFCD1013380
:102DF00023708022D02380211B06D20249025A610F
:102E0000380059619A61FEF7E9F82378002BFCD16C
:102E1000D0238021802001221B06C902400222709B
:102E200059619861996122CE281D1035AA40800011
:102E300008184B681342FCD12C2303702378002B15
:102E4000FCD1013323708022D023D2021B065A61A9
:102E500080BCB846F0BDC0469C010020990100200E
:102E6000F8B5CE46474680B5984608AB1E882B4B32
:102E700091461B88984242DA294A1488A1423EDAD8
:102E80004A46121880B2934242DB4B469AB24346FE
:102E90005B1889B29C4236DB43469BB2CB18821842
:102EA000013B013A9BB292B2FFF734FFD02380225C
:102EB0001B0652025A618022D2029A614346002BBD
:102EC00018DD4B46002B15DD0127164C4D46300012
:102ED000FEF784F821780029FCD1013DABB22770C0
:102EE0002DB2002BF3D14346013B9AB21BB2984658
:102EF000002AEBD1D02380221B06D2025A61C0BC2B
:102F0000B946B046F8BD641AA3B224B2A046C5E7DC
:102F10001B1A9AB21BB29946B9E7C0467E0600203A
:102F20007C0600209901002000B5074B83B00022E9
:102F30009B5E064A0021525E009000210020FFF7B0
:102F40008FFF03B000BDC0467C0600207E06002037
:102F5000D02380221B065202F0B59A618022D20251
:102F60009A61012206004048436801681C1D103325
:102F70009A40A4000C194B681A42FCD136232370E6
:102F800022C82B00012210339A40384B1C78002CA9
:102F9000FCD10120D024802718702406FF020230C3
:102FA0006761304002284ED003283CD001281CD055
:102FB000802004354002AD0060614D19A76148686A
:102FC0001042FCD148222A701A78002AFCD1013222
:102FD0001A70D02380221B06D2025A61F022244BA1
:102FE0001A80244B50321A80F0BD802004354002F4
:102FF000AD0060614D19A76148681042FCD12822DC
:103000002A701A78002AFCD101321A70D02380224B
:103010001B06D2025A61A022154B52001A80154B92
:10302000503A1A80E0E7802004354002AD0060612C
:103030004D19A76148681042FCD1E8222A701A781D
:10304000002AFCD1E0E7802004354002AD00606139
:103050004D19A76148681042FCD188222A701A785D
:10306000002AFCD1B3E7C0469C0100209901002052
:103070007E0600207C060020F0B5DE464E46454622
:1030800057468346E0B589B0009312AB1E88A14B2A
:1030900010001C88019288462200A34500DB19E13C
:1030A0009D490B88984500DBB6E002005A44079220
:1030B000944200DA1FE15A4692B21700039282B29C
:1030C0001500040006920292434603989BB24219EF
:1030D000013A190092B29946FFF71CFED0238022D4
:1030E0001B0652025A618022D2029A61002C0ED035
:1030F00001239A46894C3000FDF770FF2378002B9E
:10310000FCD15346013DADB22370002DF3D1D02345
:1031100080221B06D2025A616B461B887D4A5D1EC7
:1031200012880493ABB205934B4499B214001BB2BE
:103130005A4500DCEBE078480088834233DA079B8D
:10314000029DA34203DDD21B13B295B201937A1EF6
:10315000AA180B0092B23800FFF7DCFDD0238022C2
:103160001B0652025A618022D2029A61019B002BF7
:103170000ED001239A46694C3000FDF72FFF2378CB
:10318000002BFCD15346013DADB22370002DF3D18D
:10319000D02380221B06D2025A615E4B1C885C45FC
:1031A0005ADD5D4B1888804500DB8CE0009C2300D5
:1031B0004344834207DD4B46C01A83B25D1E04932D
:1031C000ABB204B20593049A4B469446013B634468
:1031D0003A009BB249463800FFF79CFDD02380227D
:1031E0001B0652025A618022D2029A616B46142554
:1031F0005D5F002C29D001239A46484C3000FDF732
:10320000EDFE2378002BFCD1534623706B1E1BB2BE
:10321000002D1AD01D00F1E7414689B28946694662
:1032200009884D1E0491A9B25D460800AFB2019D08
:103230004844AC460591ADB281B200B202959842C5
:1032400041DA63465B44079379E7D02380221B066B
:10325000D2025A612F4B1C88029B9C466744013F57
:10326000B8B23FB2A7422EDA2B4B1B8898452ADA18
:10327000009A110041448B4237DB95B24B46013B2B
:10328000EB1802009BB24946FFF744FDD023802291
:103290001B0652025A618022D2029A61009B002BC7
:1032A0000CD001271D4C3000FDF798FE2378002B31
:1032B000FCD1013DADB22770002DF4D1D023802286
:1032C0001B06D2025A6109B0F0BCBB46B246A94601
:1032D000A046F0BD8BB299465B469BB203936B460A
:1032E0009B880693039F0293B6E74A469B1A9DB2BA
:1032F0001BB20093C2E75B469BB2E41A1F00039324
:103300006B469B88A5B2069324B20293DCE6069B2B
:10331000E8E7C0467E0600207C06002099010020D8
:10332000F0B54546DE4657464E46E0B58DB00493AF
:1033300016AB1B88059317AB1B7898464C4B1B8824
:10334000984267DA4B4B1B88994263DA43465B002D
:1033500043445B001B18002B5CDD4346DB005B181D
:10336000002B57DD43469BB29A4693009A18424B76
:1033700080B2D3180A93002308938BB20B930833BF
:103380009BB2099007900393089B052B00D16CE03A
:103390000A9B1E786B461C229B5E0B9D9B466B46D0
:1033A00024229B5E2C0006930123994643461FB2BC
:1033B00012E04346012B34D0049B29B200933A001B
:1033C0003B005846FFF74CFD0134039B5544A4B223
:1033D0007608ADB2A3420CD04B463342E9D1059BEF
:1033E000049A9342F0D04346012B2CD0059B29B27E
:1033F000E4E7089B0133DAB2099B089201339BB2E0
:103400000993079B53449BB207930A9B01330A938A
:10341000062AB9D10DB0F0BCBB46B246A946A046BB
:10342000F0BD06980028CFDB114B1B889842CBDA01
:1034300021B20029C8DB0F4B1B889942C4DA049AD9
:10344000FDF7F4FDC0E706980028BDDB084B1B889C
:103450009842B9DA21B20029B6DB064B1B889942A3
:10346000B2DA059AFDF7E2FDAEE7002692E7C04624
:103470007E0600207C060020507E0010F0B5CE466F
:10348000474680B50278040083B0002A23D02A4B37
:103490002A4E99462A4D0EE00D2A09D0092A1FD13D
:1034A000274A28491388098804338B4200DA13809D
:1034B0002278002A0FD001340A2AEDD1224B1F4A6C
:1034C0001B881188DB005B18138000221C4B1A80BC
:1034D0002278002AEFD103B0C0BCB946B046F0BD97
:1034E0004B460020315E0027E85F174F1B88B84627
:1034F0003F780197154F3F880097FFF711FF43462C
:103500001A8829885300D3185B005B1810499BB2B6
:1035100009882B800029CBD00A4908889100511ACC
:10352000490041188B42C3DD3388D200D2180023F2
:1035300032802B80BCE7C046860600208206002031
:10354000800600207E0600208806002084060020D9
:103550008A060020024B1880024B19807047C04633
:103560008006002082060020031C002800D10123D1
:10357000014ADBB21380704788060020024B188096
:10358000024B18807047C046840600208606002043
:10359000094A830094464022634410B51C68C00069
:1035A0006240C02414408022520113431C60034B2C
:1035B0009C466044416010BD04C001400040014091
:1035C0000A4B80009C4604236044002901D00C2350
:1035D0000821002A00D10B00026853400C221A4037
:1035E00080235B01184302607047C04604C001405D
:1035F000074BC0009C466044036809025940C02341
:103600009B00194080235B01184301607047C0464E
:1036100004400140084B80009C466044002905D0CE
:1036200080239B011843402303607047C0239B0104
:10363000184340230360F8E704C001400123D0226F
:103640008340120693629361094A830094464022A4
:1036500063441968C0004A40C021114080225201D1
:1036600013431960034B9C46052360444360704735
:1036700004C0014000400140024B18688007C00FA1
:103680007047C04600C00640EFF3108072B6034A90
:103690001368002BFCD0BFF35F8F70472C0100D064
:1036A000BFF35F8F0022024B1A6080F310887047CF
:1036B0002C0100D070B5EFF3108C72B60D4D2B6855
:1036C000002BFCD0BFF35F8F0724CB08C618C05C6B
:1036D00001230C40A3401C000440034207D10343D4
:1036E0003370BFF35F8F2C608CF3108870BD1000B7
:1036F00001F0A2FB2C0100D00021044B044ABFF3CF
:103700005F8F02C39342FAD17047C046000100D0D8
:10371000800100D0044A1078431CDBB2172B00D97B
:10372000102313707047C046A80100200123834076
:10373000002904D0034A1360034A13607047034A08
:103740001360FBE780E200E000E100E080E100E0E0
:10375000024B10309B688000C058704700ED00E0BD
:1037600070B50D00EFF3108672B60F4A1368002B88
:10377000FCD0BFF35F8F0D4B10309B6884001B594A
:103780000B4A934203D09D4201D001F06DFB074BE1
:103790009B681D51BFF35F8FBFF35F8F0022024B09
:1037A0001A6086F3108870BD240100D000ED00E09F
:1037B000CD010010F0B5DE4657464E464546E0B511
:1037C0000C0083B0EFF3108972B6584A1368002BCF
:1037D000FCD0BFF35F8F564B9A68030010339F00F5
:1037E000D559544A9046954232D0A54243D0524EC4
:1037F000AA1B2F2A2CD801228240924651464F4ABA
:1038000012681140019151464D4A1160BFF35F8F1C
:10381000EFF305829346002A33D101232A009A430D
:1038200093689C4208D177E04B005B189B00F3182B
:103830009968A1422AD01A00062151560029F3DACC
:10384000019B002B19D052463E4B1A603B4B1A602D
:10385000374B9B68DD51BFF35F8FBFF35F8F002253
:10386000324B1A6089F3108803B0F0BCBB46B246F5
:10387000A946A046F0BD1500EAE75246304B1A6053
:10388000E6E79342C9D001F0EFFAC6E706215956A0
:10389000002921DB4A005018800034188046A068B7
:1038A0009860E079D871062020569871002824DBB2
:1038B000A488F01A6405241544440019E024000586
:1038C000400D24022043988052181F4B9200B618D6
:1038D0001A781970B271B3E7594600290FD1FF3138
:1038E00091711A49918018490A789A71184A9B1B5C
:1038F0005B415A43120D0A70A2E71648E3E7164AE5
:103900001649D21A083A5002400D014399801449D1
:1039100052080A43DA8093E7062151561300002922
:10392000B8DA5A46002AEAD14546DCE7240100D03D
:1039300000ED00E0CD010010AC01002000E100E04E
:1039400080E100E080E200E08E06002001BDFFFF84
:10395000AAAA000001BD0000E601002000F0FFFF60
:1039600000F8FFFF70B5EFF3058101240443EFF386
:10397000108C72B6214A1368002BFCD0BFF35F8F06
:103980001F4B05001F4AED1A6D416A43120D1E4D73
:103990008900AE6852B27658A6421CD0062159560C
:1039A00091421CD012215956914222D01E215956C3
:1039B000914220D02A2159560324914210D0134B12
:1039C00019781A708171BFF35F8F00220B4B1A6058
:1039D0008CF3108870BDAB680D4C5C50EFE7002491
:1039E0006100091989005B18FF21997109499980C3
:1039F000E5E70124F4E70224F2E7C046240100D001
:103A0000AC010020AAAA000000ED00E08E06002014
:103A1000CD01001001BDFFFF054B064A1360064AA9
:103A2000136053609360D360136153619361704777
:103A30008080808000E400E004E400E0024B9C46CB
:103A400061448900016070474000003410B50400F3
:103A5000FFF760FE01002000FFF7F0FFFF23237156
:103A6000BFF35F8F10BDC04610B50400FFF752FED4
:103A700001002000FFF7E2FFFF23A380BFF35F8F69
:103A800010BDC04683680B4810B58446614462444B
:103A9000090112019A18591854684B6801209C4278
:103AA00001D802D00020C0B210BD12680B689A4243
:103AB000F9D8F7E7FFFFFF0F0A4B1968EFF3108003
:103AC00072B60A68002AFCD0BFF35F8F1B68BFF391
:103AD0005F8F00221A6080F3108840BF0020002111
:103AE0007047C04660060020F8B557464E4645462A
:103AF000DE46E0B599460CAB1C780DAB1B78060092
:103B000090469A460768002C11D1BC7B002C42D00D
:103B100065003B682D19033D59194B78BB73002B89
:103B200000D1FB7300238B704B700B7004E06500B9
:103B30003B682D19033D5919B2682A4B94464246F9
:103B4000E3181B0163441A604A465A600A9A9A6055
:103B50000B9ADA6000238B704B700B707B7B9B465B
:103B6000002B2BD022005946B8687B6898473A68EA
:103B7000002816D05B4658465B005B445519033B52
:103B8000A870D118D35C002B00D06B705B460C7012
:103B90007B73A34513D0F0BCBB46B246A946A046F2
:103BA000F8BD5B465B005B44033BD3189C70511926
:103BB000525D002A00D05A705B460B707C734246FF
:103BC0004B46307D00F0BAFB051E06D05346002B55
:103BD00003D12100306800F0D5FD0E9B002BDAD018
:103BE0001D70D8E7FFFFFF0FF0B5DE4657464E4683
:103BF00045460023E0B58BB00893674B8200D4584C
:103C000000239B46099000F00FFB626806000F003E
:103C1000EFF3108572B61368002BFCD0BFF35F8FF3
:103C200023689C465B7B9946002B00D169E0A26823
:103C30005A4B90464B441B01984443461A685B68B4
:103C400010001900801BB941002900DC63E00998CD
:103C500000F074FB0023002298460023069207938D
:103C600000239A466368BFF35F8F5A461A6085F354
:103C700010885346002B08D10028C4D10BB0F0BCEB
:103C8000BB46B246A946A046F0BD089B4146180275
:103C90004B461843D047626806000F00EFF31085CB
:103CA00072B61368002BFCD0BFF35F8F002F50DB80
:103CB00033003B4302D02369002B61D12368D97BB9
:103CC000002907D04A00521819688C4649466244B8
:103CD000033A51709A7B002A01D14A469A734A46A8
:103CE000DA734B46E168013BCA5C0132CA545B4659
:103CF00023616368BFF35F8F5A461A6085F31088AB
:103D000081E70023002298460023069207930023B0
:103D100000209A46A6E7002902D1002800D096E7A5
:103D20000021604600F0ACFC43461A685B680692CE
:103D3000079343469B689A464346DB689846E36888
:103D40004B44013B1B7808931B0203432361002073
:103D500088E72369002BB1D0069A079B921BBB41D1
:103D6000002B15DB5946049101210391494602912C
:103D700041460191514620000091FFF7B5FEB6E79C
:103D800000F052FA32003B0012184B41002BE9DAE6
:103D90000122034B5242E5E748060020FFFFFF0FD8
:103DA000FFFFFF7F10B5144C6368002B04D00A217D
:103DB0001248FFF743FE10BD2300114A102120686E
:103DC00000F078FB032000F023FA032000F020FB32
:103DD00003200C4900F06CFAFFF79CFC0A4B9C4650
:103DE00003232375D0231B061B6860446375074BB0
:103DF00080006060DC60DAE7F401002060060020EB
:103E0000853A0010E93B00104000003448060020CD
:103E1000F0B54E464546DE465746E0B585B00193BF
:103E200010AB1B7806000393002399469846009236
:103E30007268EFF3108B72B61368002BFCD0BFF3DF
:103E40005F8F3568AC7B002C3DD067002B683F1935
:103E5000033FDB195A78AA73002A00D1EA73B168CC
:103E6000474A8C4600980199A218120162441060DA
:103E700051600E9991600F99D16042469A705A70C4
:103E80001A706B7B9A46002B67D022001900A86835
:103E90006B6898472A68002852D0534650465B000A
:103EA0005344D719033BB870D118D35C002B00D012
:103EB0007B7053460C706B7354454FD0F3681B19DD
:103EC000013B187800E000207368BFF35F8F424623
:103ED0001A608BF31088002C4FD04B46002B08D172
:103EE0000002204305B0F0BCBB46B246A946A0463E
:103EF000F0BD039B002B3ED00E9B00200F999847EE
:103F0000030004000D000B4335D000290ADA009AA3
:103F1000019B121BAB4100920193002B0ADB039B18
:103F2000994685E700F080F924184D4100940195E9
:103F3000002DF4DA0123134C5B4200930194EEE769
:103F400053465B005344033BD3189C70D119D25D98
:103F5000002A00D05A7053460B706C73307D009A63
:103F6000019B00F0EBF981460028A7D021003068C2
:103F700000F008FCA2E70020B4E701204042B1E7CE
:103F8000FFFFFF0FFFFFFF7FF0B504000D000626C7
:103F90007642F717C64636196F4100B584B08F4296
:103FA00014D811D000F040F932003B00121A8B41B6
:103FB000002B15DC002B3ED02000290000F068F912
:103FC00004B080BCB846F0BD8642EBD9002600277D
:103FD00000F02AF932003B00121A8B41002BE9DD78
:103FE000002302930193154B3200009314483B00C9
:103FF000FFF70EFF0028DFDB00239846BC46114A7E
:10400000114F7B6A9C4504D8B96A8E42D4D99C452D
:10401000D2D11168EFF3108072B60B68002BFCD080
:10402000BFF35F8F1368BFF35F8F4146196080F362
:10403000108820BFE5E7002ABED0D1E7B93A0010CA
:10404000F4010020600600200040054070B5060025
:1040500000F0EAF8FA2204000D00002330000021ED
:10406000920003F087F800196941002902DBFFF78D
:104070008BFF70BD012001494042F8E7FFFFFF7F41
:10408000F0B5EFF30583CE46474680B505000C003A
:1040900085B0002B12D02C4A0020536A9C4203D8D2
:1040A000926A0130AA4204D305B0C0BCB946B046FA
:1040B000F0BDE01A421E9041C0B2F5E7234E0293D4
:1040C0000193234B0200009330000B00FFF7A0FE8A
:1040D000031EE0DD20BF7168EFF3108772B60A6837
:1040E000002AFCD0BFF35F8FDAB294463068427B7F
:1040F00062451DD0FF221A40510089460168914453
:1041000088464946414403398978002913D0F1682B
:104110001B0A88464244013A1278DBB29A420FD019
:104120007368BFF35F8F00221A6087F31088B2E7CD
:10413000FF221A40EBE732699342F1D13161EFE798
:10414000614600F01FFBEBE700400540F401002052
:10415000B93A0010F0B5EFF30582D6464F46464611
:104160001000C0B51038EFF3108872B6214C2368E8
:10417000002BFCD0BFF35F8F0123190081401E4D3F
:104180001F006963AA461D4D29601D4D2E78AC465F
:104190003500C5402F402B4209D1BFF35F8F276008
:1041A00088F31088E0BCBA46B146A846F0BD534635
:1041B000144D5F6A83005D59AF420ED3124A8E439D
:1041C0009B5862461670BFF35F8F0022226088F30F
:1041D0001088002BE6D09847E4E70C4B92009C46F1
:1041E000624413681360BFF35F8F0023236088F37A
:1041F0001088D7E7280100D0004005403C700540FA
:104200008F06002064060020AC050020D03F05404A
:1042100010B50100024A0348FFF74CFA10BDC04632
:10422000608300108D060020034B596A0A00986ACB
:10423000596A8A42FAD170470040054070B50400BF
:104240000D00124A536A1900966A536A8B42FAD1DA
:104250003000190024184D41AB4211D80ED02B006C
:104260000A494A6A9A42FCD307D1084A02E0516AD5
:10427000994202D1916AA142F9D370BDA642EED90A
:10428000012301246442E5175B42E9E70040054051
:10429000064A536A9942FCD807D1044B02E05A6A95
:1042A000914202D19A6A8242F9D370470040054098
:1042B00070B504000D00EFF3108672B61A4A136849
:1042C000002BFCD0BFF35F8F002D1BD02000FFF729
:1042D0003FFA164981420AD02000FFF741FA012136
:1042E0002000FFF723FA0123A340114A1360114B6A
:1042F000A400E550BFF35F8F00220B4B1A6086F3DA
:10430000108870BD0B4BA200D5500122A2400A4973
:1043100020000B7893430B700449FFF74BFA002100
:104320002000FFF703FAE5E7280100D0554100100F
:1043300038600540AC0500208F060020F0B54F46E0
:10434000D6464646C0B507002C4C616A0D00A66AE9
:10435000616AA942FAD18B4208D805D00120E0BC9D
:10436000BA46B146A846F0BDB242F7D9EFF3108A7B
:1043700072B6234801680029FCD0BFF35F8F012586
:10438000BD4020491D4C8846097889462943C9B259
:104390008C46414660460870391D1B48890065639C
:1043A0000A51B9000B50216A0020294219D0616AD4
:1043B0000800A66A616A8142FAD18B4219D801D1FC
:1043C000B24216D8CC4516D00C4B1F201D625D633F
:1043D00001230740BB400D4A1E38136043464A463E
:1043E0001A70BFF35F8F0022054B1A608AF31088A2
:1043F000B5E70020F5E70120F3E7C046004005409F
:10440000280100D08F0600206406002080E200E032
:10441000EFF3108C72B60A490B68002BFCD0BFF387
:104420005F8F01238340074A0748136202789A434B
:104430000270BFF35F8F00230B608CF3108870470E
:10444000280100D0004005408F06002070B505000F
:1044500014001600002915D00C00002A12D0806824
:104460006B689847296800280ED073009B1962007A
:10447000033B1219CB18033A9C7088188A5C002AF7
:1044800015D10670200070BD63001B197200033B3C
:104490009219CB18033A9E7088188A5C002A02D1C0
:1044A00004703400EEE75A7004703400EAE75A7082
:1044B0000670E7E730B583600023CCB24373013365
:1044C000047342608373C4730D000068012C06D925
:1044D000421C0133DBB2137003329C42F9D1FF213D
:1044E00029404B005918002340180338437030BD51
:1044F000F8B5CE46474606000C0080B5002907D027
:104500004D0003686D18033D5A195778002F04D1E8
:104510002000C0BCB946B046F8BD7900C9190339BE
:104520008846434459788946002159705170736810
:104530003A002100806898473368002814D042462A
:104540009A18947059195B5D002B00D053700F704E
:10455000270049463000FFF7CBFF3900020030004A
:10456000FFF774FF0400D3E7424641465D19AF7080
:104570009A185B5C002B00D06B701470E9E7C046A2
:10458000F0B557464546DE464E46E0B50D006B0099
:1045900001685B19DF1E0400C85D83B00192CA196F
:1045A000002850D043001B18033BCB185E78B4465C
:1045B000002E1AD1019E002E42D0E67B002E04D0A0
:1045C00073009B19CB18033B5D70A37B002B00D1BC
:1045D000A573E57300282FD10023537003B0F0BCFE
:1045E000BB46B246A946A046F0BD72006244033AFB
:1045F00089184A78904600224A7091465A70010004
:1046000032002000FFF722FF43468246002B07D0EE
:104610005B0021684344033BCB185A78002A16D12B
:10462000424651462000FFF711FF2168019BCA193D
:10463000002BC2D10028CFD043001B18033BCB185E
:1046400000219970C8E7019B002BB6D1C4E7500048
:1046500080180338091848788346484648705870CF
:1046600041462000FFF7F2FE594680462000FFF742
:104670003FFF414602002000FFF7E8FE8046CFE7FB
:10468000F0B557464546DE464E46E0B583B001914B
:10469000457B04006B0000685B19DF1EC15DC21919
:1046A000002952D04B005B18033BC3185E78B44618
:1046B000002E1CD1019E002E44D0E67B002E04D09B
:1046C00073009B19C318033B5D70A37B002B00D1C3
:1046D000A573E573002931D100232800537061735D
:1046E00003B0F0BCBB46B246A946A046F0BD72007E
:1046F0006244033A80184278904600224270914604
:104700005A7020003200FFF7A1FE43468246002B7C
:1047100007D05B0021684344033BCB185A78002A3A
:1047200017D1424651462000FFF790FE019B010041
:104730002068C219002BC0D10029CDD04B005B18D6
:10474000033BC31800209870C6E7019B002BB4D12F
:10475000C2E7500080180338091848788346484655
:104760004870587041462000FFF770FE5946804659
:104770002000FFF7BDFE414602002000FFF766FE65
:104780008046CEE770B5040000292CD0437B8B42D5
:104790002ED0056848004018033828188278002A6F
:1047A00021D053009B18033BEA5CEE188A4202D1E9
:1047B0001BE0002A08D053009B18033BEB185A78E3
:1047C0008A42F6D142785A700023012283704370E6
:1047D0002000FFF7D5FE617B02002000FFF736FEC8
:1047E0006073012000E0002070BD43783370EBE778
:1047F00001221900FFF7C4FE60730120F4E7C046F0
:10480000F8B5CE464746040080B506200E0000F0FD
:1048100023FA051E51D0524B5249E21853425A41D5
:104820008023DB039C4692054F4B62441A604F4B3A
:104830001A6010008B689843FBD1494B8021E31824
:104840005A4253414A4A5B0049009952062000F0FF
:1048500003FA3100C00001F06FFEC30932D14022DB
:10486000012190466162A362256BEB0736D42700D5
:104870008026E36A00232C3776013E43336006200E
:10488000256300F0E9F94146800001F055FE236BF5
:1048900005009846DB073BD46022E36A5A406E234A
:1048A0001340336043462363802310229B013B4324
:1048B0001A60304B23630323A3642800C0BCB946AD
:1048C000B046F8BD2C4A93423FD900232B492C4ACD
:1048D0006162A362256B9046EB07C8D52200C02316
:1048E00030329B011343234A06201A60666AA26A8B
:1048F000B601B61800F0B0F9224901F01DFEB6026B
:104900000100300001F018FE0021FFF797FCAEE730
:104910002200C02330329B011343164A06201A603E
:10492000636AA26A9B019946914400F095F94B464F
:1049300014499B02994601F0FFFD0100484601F031
:10494000FBFD0021FFF77AFCA6E77F22990188464C
:1049500010400130400819008044030082E7C0463F
:104960000080FCBF00C0004000E0004000F00040BC
:104970007406002001030000FEFF0000FFFF00009E
:10498000C0FF3F004E0E000030B50C2083B000F099
:10499000B9F9FEF771FE00280ED0994B994A1A60BA
:1049A0005A609A60DA601A615A619A61DA611A6231
:1049B000954A5A6203B030BD944CA06700F0AAF942
:1049C0000122934B1A60636C012BFCD10322914BA3
:1049D0001A608E4A936B012BFCD1013301218E4A60
:1049E0008E480093043300F03DF905238C4A009370
:1049F00001218C4800F036F98B4B5A68FF2A02D807
:104A0000802252005A6080227D4C824B2169120123
:104A1000854D1A60002907D0606901F08DFD431CA7
:104A20005800C0180338FDD2E0217F4B02201A68DD
:104A30001140802252012A43116019684840032125
:104A40000140116004219A681142FCD0802280212B
:104A500092012A4309011160802252005A60734B6F
:104A60002361734B5968FF2900D85A600321684AB3
:104A70006F4B116002399A681142FCD0E0201A682D
:104A80001040802252011A431060186848400321E8
:104A900001400220116066498A681042FCD08022E1
:104AA00092011343802212011A608022614B52004E
:104AB0004A606361604B5968FF2900D85A608022C0
:104AC0005E4BE16912015C4D1A60002907D06069F4
:104AD00001F032FD431C5800C0180338FDD2E0221B
:104AE00055490B681A4080235B012B431A608023D1
:104AF00080229B012B4312011A608022414B5200FD
:104B00004A60E3614E4B5968FF2900D85A60802201
:104B10004C4B216A12014A4D1A60002907D0606986
:104B200001F00AFD431C5800C0180338FDD2E022F2
:104B300043490B681A4080235B012B431A60802392
:104B400080229B012B4312011A60802380225B008C
:104B50004B602C4BD20223623B4B5968914200D2EE
:104B60005A608022394B616A1201374D1A60002960
:104B700007D0606901F0E0FC431C5800C0180338FE
:104B8000FDD2E02230490B681A4080235B012B43A1
:104B90001A60802380229B012B4312011A6080231C
:104BA000DB024B60184B6362294B5A68FF2A02D81C
:104BB000802252005A608022264BA1691201244DA6
:104BC0001A60002907D0606901F0B6FC431C580048
:104BD000C0180338FDD2E0221D490B681A4080231B
:104BE0005B012B431A60802380229B012B4312011F
:104BF0001A6080235B004B600E4BA361DAE6C0466F
:104C0000C4050020006CDC021BB7000000800040DF
:104C10003CB0004030B00040002F68590080024096
:104C2000008C864700C0024030800040001BB70067
:104C30003C800040405973075480004054B000400D
:104C40006080004060B000406C8000406CB000406C
:104C50004880004048B00040014B8000C058704779
:104C6000C4050020F8B5040021481D0017000E00FF
:104C700001F062FC0100380001F05EFC069B290493
:104C80001B0319432368002B20DB1A4B1A4DE21833
:104C900053425A4180235B019C461203174B6244E6
:104CA0001A60174B1A601700AB689F43FBD1C022F4
:104CB000231D92011A4321232660A06013602368FC
:104CC000002BFCDA0823E1601360F8BD3F23226863
:104CD0001340B342D9D1A3681B051B0D8342D4D125
:104CE000EE22E368D20213408B42CED1EDE7C046FC
:104CF000001BB7000040FDBF00C0004000E00040C6
:104D000000F000408023024A9B000343D3627047B7
:104D100000800540AA23064A1B0113602F23054982
:104D2000D360054B19605368002BFCDA7047C0460E
:104D30000040024000B0FA00006002402C4B2D4AB7
:104D400070B51A602C4A2D4B2D491A6014008B68DF
:104D50009C43FBD12B4D2C4EB54208D2013E761B15
:104D6000B60808CD984723000134B342F9D1FFF7C4
:104D70000BFE264A214B1A60214A9368DB43DB0174
:104D8000DD09002BF9D14022214B224C224E9A679B
:104D90005A671A67DA66B44208D223682000002BEB
:104DA00020D00834FEF760FEB442F6D31B4E1C4CF4
:104DB000C022A168300002F0FFFAA660FEF79CFC5A
:104DC000FEF72AFEFEF7EEFF164C174EB44208D24D
:104DD000013E361BB60808CC98472B0001359E4291
:104DE000F9D170BD0834FEF731FEB442D5D3DDE70A
:104DF00000E00040BFCDFBFEFE7F3C0000F0004025
:104E000000C000406002002070020020FFFFFF0190
:104E100000F0014058020020600200200000002045
:104E200000ED00E0700200207802002000BEFDE7E7
:104E300010B5FFF7FBFFC0460FB400B5084883B0BC
:104E400002F01EFC049B002B07D005A9180001915D
:104E500001F0F2FA034802F013FC0120FFF7E6FF2D
:104E6000848300109483001010B50148FFF7E4FF1D
:104E7000988300109A4200D2885470477047C04609
:104E8000F8B557464E464546DE46E0B599460A9B7C
:104E900007009A460D9B8846934615000B9E9B077C
:104EA00010D10C9B9E420DD29D1B14000E005D4440
:104EB00022004B46013431002020B847A542F7D1EB
:104EC000B0460B9E002E27D0444675195346AA1BA8
:104ED000013E985D21004B46B847002EF6D12300D5
:104EE0002C0098460D9B9B070FD55B46E51A0C9B43
:104EF000AB420AD94646984622004B463100202054
:104F00000135B8470134A845F6D82000F0BCBB46AF
:104F1000B246A946A046F8BD2C00E3E7F0B54F46DF
:104F20004646D646C0B584B098460EAB1B78129F55
:104F3000994694460D9C109B119EBA0725D4002ECD
:104F40004BD19C4200D3BFE001223A4092461F2C35
:104F500000D9B8E00C9A551E302201E0202C03D075
:104F600001342A55A342F9D85246002A0DD0A64250
:104F70000BD9202C44D00C9A551E302201E0202C55
:104F80003ED001342A55B442F9D1FA064DD57A05FE
:104F90003FD4002C39D10F9B102B00D179E00F9B0F
:104FA000022B00D18AE030230C9A012413704B4667
:104FB000002B3FD02D230C9A135501340C9B6246D5
:104FC00000930397434602960194FFF759FF04B0FC
:104FD000E0BCBA46B146A846F0BD012215003D40EE
:104FE000AA463A422FD04A46002A02D10C323A420F
:104FF00000D0013E9C42BAD21F2CABD9202E27D91B
:105000002024FA06DAD57A0503D4A3422DD0A6428D
:105010002BD00F9B102B32D0022B20D0202CCDD0A8
:1050200030220C9B1B191A700134202CC6D04B4621
:10503000002BBFD17B070DD43B07BFD520230C9A93
:1050400013550134BAE79C429FD21F2C00D881E748
:1050500020249AE72B230C9A13550134AEE7202C19
:10506000ACD00C9B1B1901343AE0631E012C92D08A
:105070000F9A102A2AD0022A2FD01C00D0E7BB0694
:105080000ED4202C9AD00C9B1A190134782313705B
:10509000C4E7BB060DD478230C9A01241370BFE734
:1050A000202C00D18AE758220C9B1B191A7001345E
:1050B000B4E758230C9A01241370B1E70C9A6033BB
:1050C00001241370ACE7202400265EE7023CBA06F8
:1050D000E9D40C9A12191C00D8E70C9A9246534452
:1050E00062221A709AE7C04610B5002800D110BDA0
:1050F00002F07AFAFBE7C0460B0010B5002802D098
:1051000049681B68984710BDF0B5DE4657464E46C5
:105110004546E0B59BB09B46249B89469846259B17
:105120000B900C924046424619009A4601F0CDFC85
:10513000002800D0D8E0012240465146774B524229
:1051400001F0BEFC002800D0CEE0012240465146CE
:10515000734B524201F09EFC002800D0C4E00022B4
:1051600000234046514601F095FC002800D0B9E1EB
:10517000424653460A9209938023289ADB001A403C
:105180000E92289A1A4201D1062326930A9A099B65
:105190001600134300D0C7E0289B002500261B05FE
:1051A00000D49BE100230D93269A0D9B9A4200DCCC
:1051B0009FE1D01A431E26938023289ADB001A43CE
:1051C0000023002728920D93279B0024BB4200D97F
:1051D000DC1B0223289A1A400E92289A134203D00D
:1051E0007B427B415B421C400D9B002B07D00A9801
:1051F00009992A00330001F0ECFB0A900991002282
:1052000000234046514601F045FC002805D080208F
:1052100000068446099961440991289A414B0B9DE7
:1052200013400493269B0A9A0293099B03940092CD
:10523000019349465B4628000C9A00F08BF9040064
:10524000002F62D0289B220098061F23C017984386
:10525000631C984649465B466530A8470D9B002570
:10526000DA179C18DB0F9A465440013F01E0202DCD
:1052700013D00AAA94461F23200063440A21013553
:105280005E1901F059F93031317020000A2101F026
:1052900053F926000400092EE9D8052306930023BC
:1052A00004930A330393534605970B9F029312AB63
:1052B000009342465B46494638000195FFF72EFEB3
:1052C0000E9B0400002B20D00C9BC51A279BAB42E1
:1052D0001BD91E0022005B46494620200135B847F5
:1052E0000134AE42F6D810E0289B42460493279B37
:1052F00049460393269B0B980293534600920193D1
:105300005B460C9A00F026F9040020001BB0F0BCAC
:10531000BB46B246A946A046F0BDC046FFFFEF7FA0
:10532000FFFFEFFFFFF7FFFF734B099F9C467800DD
:10533000400D604401F0DCFB704A714B01F067FBEB
:10534000704A714B01F03CFB3B03704A1B0B1A4344
:1053500004000D00300011006D4B002201F027FB0E
:105360006C4A6D4B01F053FB02000B00200029003A
:1053700001F026FB01F0D4FB0D9001F0B9FB674A68
:10538000674B04000D0001F042FB0022654B01F069
:1053900017FB01F0C5FB644A0600644B200029009E
:1053A00001F035FB040030000D000F9601F0A0FB6A
:1053B0005F4A604B01F02BFB02000B00200029002C
:1053C00001F0F5FA02000B0006000F0001F01FFBD0
:1053D000320004000D003B003000390001F0F0FA0B
:1053E000002210901191544B2000290001F0F1FA95
:1053F0000022524B01F0E4FA02000B0020002900C9
:1054000001F0E7FA00224E4B01F0DAFA02000B003D
:105410002000290001F0DDFA0D0080210400320097
:105420003B000020C90501F0C2FA02000B00200079
:10543000290001F0C5FA02000B001098119901F043
:10544000C8FA0022314B01F0BBFA3E4B0F9C9C4640
:1054500064440022230501F0DAFA05000E00020080
:105460000B000A98099901F015FB00280AD00D9B42
:105470002800013B31000D930022304B01F0A9FAC6
:1054800005000E00C6270D992B0063318F42BF41E6
:1054900028997F420437090500D495E6334300D1AB
:1054A00082E6099C284A2100284B0A9801F000FB5B
:1054B000002808D000222100254B0A9801F0EAFAC2
:1054C000002800D070E6269B002B00D17CE60E9BC6
:1054D0005A1E9341269AD31A269375E60023042771
:1054E0000D9371E643460A9380231B0653440993A8
:1054F00042E6002326935FE601FCFFFFFB799F5005
:105500001344D33FB3C8608B288AC63F0000F03FE6
:105510000000F83F61436F63A787D23F71A3790909
:105520004F930A400000E03F1655B5BBB16B0240F7
:10553000EF39FAFE422EE63F00002C4000002440E6
:1055400000001840FF0300002D431CEBE2361A3F19
:1055500080842E41F0B54E46DE4657464546E0B5BE
:1055600097B09946209E219F229B8346984607919B
:105570000C923B0032003000390001F0A6FA0028FE
:1055800000D0A9E1012230003900CA4B524201F09B
:1055900081FA002800D0E1E0012230003900C64B3A
:1055A000524201F08DFA002800D0B7E0002230000E
:1055B0003900C24B01F084FA002800D099E00022A3
:1055C00030003900BE4B01F065FA002800D090E0B1
:1055D000002200233000390001F05CFA002800D0DE
:1055E000B1E000230D93249B5B0501D4062398466C
:1055F00008AB9C461722002430234146624404E055
:10560000013413550139202C01D00929F8D88846D6
:105610003000390001F084FA4346DA00A94B050056
:105620009B181A685B680892099301F061FA0200FE
:105630000B003000390001F0BAF9089A099B01F01B
:10564000E6F90A900B9101F08FFA824601F04CFACC
:1056500002000B000A980B9901F0A9F900229A4B5D
:105660000A900B9101F02CFA002800D1C0E0012330
:105670009C46E244504601F037FA02000B000898BD
:10568000099901F00DFA002802D000239A4601354D
:105690004346002B6AD008AB17269C460895664403
:1056A000554614E001235B4243440A2128009A46F0
:1056B00000F042FF013430313719397028000A21D7
:1056C00000F03AFF092D00D8D0E0D0460500202C8C
:1056D000E8D10EAB98460323249A1340012B00D146
:1056E00096E02023249A01930392239A4346029240
:1056F0001EE0249B58460493239B00960197039336
:1057000043460C9A029307994B46FFF7FDFC17B0EE
:10571000F0BCBB46B246A946A046F0BD249B5B0741
:105720000ED40322694B249901920391239902918B
:10573000009358464B460C9A0799FFF7A1FBE6E702
:105740000422634BEFE73B0032000020002101F010
:105750002EF9012306000F000D9344E7249B0393C9
:10576000239B0293042301935A4BE1E7280001F0A5
:10577000BFF902000B003000390001F018F9524B5C
:10578000002206000F0001F085F90EAB98460028B4
:105790000AD10022300039004B4B01F091F900286A
:1057A00002D1EB0700D50135202C94D008AA9446ED
:1057B0001723280063440A2101341E1900F094FEC7
:1057C0003031280031700A2100F08EFE051EEBD129
:1057D0000323249A1340012B1BD0202C00D180E7F7
:1057E0000D9B002B35D02D224146631C0A5579E7CD
:1057F00000220A980B99344B01F04CF9002800D094
:1058000046E75346002B51D101239C46E2443FE733
:105810002024239B002BE0D00D9B002B03D1249A46
:105820000C33134202D0239B013B2393239BA342BF
:10583000D3D908AB9C46172230236244202C00D1D8
:105840004FE72399013413558C42C6D0202CF8D150
:1058500047E7249B5B0724D4249A2300120700D433
:1058600040E72022414601330A553BE75746089D51
:10587000202C00D12DE7220030214046002F09D0F6
:105880000132B154202A00D123E7D3431B191B183E
:10589000002BF5D10EAB98462E234146541C8B5459
:1058A00082E72B224146631C0A551BE7DB0700D425
:1058B000EEE6A9E7FFFFEFFFFFFFEF7F65CDCD41EC
:1058C00065CDCDC1A08500100000E03FA48300108D
:1058D000A8830010B4830010249B0393239B02939E
:1058E00003230193004B23E7B0830010F0B5DE469D
:1058F0004E4657464546E0B59FB01C00289B914652
:105900000993C94AC94B8B4608901A60002900D1F7
:1059100018E2002320789A46002800D11AE22600D7
:105920001D005C460AE02A006F1C4B46089D2100C2
:10593000A8473D0001363078002870D02528F2D1E4
:1059400010239B46083B9A46043B9846023B0021A5
:105950009C46721C107816000300203BDBB2102B13
:1059600003D8B34F9B00FB589F460300303B092BE5
:1059700032D900230A932A2868D0002398462E287B
:105980003ED00300683BDBB2122B1CD8A94A9B0017
:10599000D3589F46012301321943DBE763460132A6
:1059A0001943D7E7434601321943D3E75B46013237
:1059B0001943CFE7534601321943CBE780235B00FD
:1059C0007078194301360300253BDBB2532BAAD86C
:1059D000994A9B00D3589F4600270300B800C0197E
:1059E00001364000C018337830381A00303A0700CA
:1059F000092AF3D90A901800002398462E28C0D10E
:105A000080237078DB0019430300303B721C092BA4
:105A100000D8A1E12A2800D1B2E11600B1E7A346DF
:105A2000AA462C00D14503D801235B424B449A4639
:105A30004B46524659460020089DA84720001FB0FB
:105A4000F0BCBB46B246A946A046F0BD099B40CB80
:105A50000A96002E03DB50780993561C8DE72838F0
:105A6000014370420A9009935078561C85E77828C4
:105A700000D1DFE1582800D14CE26F2800D14FE37C
:105A8000622801D100F030FC10230A009A430B92E7
:105A9000692801D000F0A9FC0A230C934B0500D51E
:105AA000D0E10B9A802311009B0019408B461A42CB
:105AB00000D0A1E2802311005B0019408A461A42FF
:105AC00000D0B6E313005B0600D5EDE213000999A0
:105AD0001B0601D400F076FC08C91BB2D8171A18AF
